:020000000029D5
:10000800F000030EF100031383120B196F218C21EA
:0A001800710E8300F00E700E090057
:100200002B214F215621632172217621200886005F
:100210008221A801A9012008A2008030A202A21B0D
:1002200028292A08A202A80AA21B11292A08A20723
:10023000A80A2808A4002A08A202A90AA21B1B29AE
:100240002A08A207A90A2908A5002208A60004294D
:100250008030A2071129031783168801890103132F
:100260008316051485148601870188010313831200
:1002700085018601870188010030A0000030A400BC
:100280000030A5000030A6000030A3000030A70019
:100290000030A8000030A9000A30AA0008000313AB
:1002A00083160F140F178F120F12080003138316F3
:1002B000811281110115811401140313831200307E
:1002C00081000B110800031383128B178B160B117F
:1002D000080003138312003081000B11080069210C
:1002E000870A0800051808007A2108008518080008
:1002F0007E210800051C7A29A00A0800851C7E2999
:10030000A003080024080022AD0025080022AE004A
:1003100026080022AF000800880121189729A1189B
:100320009D2992292F0887000814211408002E08FF
:10033000870088142110A11408002D0887000815D3
:060340002110A1100800CD
:100400008A018A140F398207DD345034CE34DA344D
:1004100053349B349F34D034DF34D334D7341F3437
:080420008D345E348F34873403
:04400E00D420FF3F7C
:00000001FF
