:020000000029D5
:10000800F000030EF100031383120B1969218621F6
:0A001800710E8300F00E700E090057
:100200002121492150215D216C2170212008860087
:10021000A801A901AA012008A2002C08A202AA0A8A
:1002200003180E299D212B08A202A90A03181429DC
:10023000A3212D08A202A80A03181A29A9217C21AA
:1002400004290317831688018901031383160514F3
:1002500085148601870188010313831285018601B5
:10026000870188010030A0000030A4000030A50004
:100270000030A6000030A3000030A7000030A80026
:100280000030A9000A30AB006430AC000130AD0092
:100290000800031383160F140F178F120F12080094
:1002A00003138316811281110115811401140313A4
:1002B0008312FC3081000B110800031383128B178B
:1002C0008B160B11080003138312FC3081000B11F5
:1002D00008006321870A0800051808007421080037
:1002E0008518080078210800051C7429A00A080058
:1002F000851C7829A003080024080022B0002508E6
:100300000022B10026080022B2000800880121184E
:100310009129A11897298C293208870008142114E3
:1003200008003108870088142110A1140800300843
:10033000870008152110A1100800AA032C08A207A5
:100340002A08A6000800A9032B08A2072908A5006F
:0E0350000800A8032D08A2072808A400080032
:100400008A018A140F398207DD345034CE34DA344D
:1004100053349B349F34D034DF34D334D7341F3437
:080420008D345E348F34873403
:04400E00D420FF3F7C
:00000001FF
